{
  "_format": "hh-sol-artifact-1",
  "contractName": "KTToken",
  "sourceName": "contracts/KTToken.sol",
  "abi": [
    {
      "inputs": [
        {
          "internalType": "address",
          "name": "_token",
          "type": "address"
        }
      ],
      "stateMutability": "nonpayable",
      "type": "constructor"
    },
    {
      "inputs": [],
      "name": "deposit",
      "outputs": [],
      "stateMutability": "payable",
      "type": "function"
    },
    {
      "inputs": [],
      "name": "getBalanceKT",
      "outputs": [
        {
          "internalType": "uint256",
          "name": "",
          "type": "uint256"
        }
      ],
      "stateMutability": "view",
      "type": "function"
    },
    {
      "inputs": [],
      "name": "owner",
      "outputs": [
        {
          "internalType": "address",
          "name": "",
          "type": "address"
        }
      ],
      "stateMutability": "view",
      "type": "function"
    },
    {
      "inputs": [],
      "name": "token",
      "outputs": [
        {
          "internalType": "address",
          "name": "",
          "type": "address"
        }
      ],
      "stateMutability": "view",
      "type": "function"
    },
    {
      "inputs": [
        {
          "internalType": "address",
          "name": "to",
          "type": "address"
        },
        {
          "internalType": "uint256",
          "name": "amount",
          "type": "uint256"
        }
      ],
      "name": "transferKT",
      "outputs": [],
      "stateMutability": "nonpayable",
      "type": "function"
    },
    {
      "stateMutability": "payable",
      "type": "receive"
    }
  ],
  "bytecode": "0x608060405234801561001057600080fd5b506040516107e83803806107e88339818101604052810190610032919061011c565b336000806101000a81548173ffffffffffffffffffffffffffffffffffffffff021916908373ffffffffffffffffffffffffffffffffffffffff16021790555080600160006101000a81548173ffffffffffffffffffffffffffffffffffffffff021916908373ffffffffffffffffffffffffffffffffffffffff16021790555050610149565b600080fd5b600073ffffffffffffffffffffffffffffffffffffffff82169050919050565b60006100e9826100be565b9050919050565b6100f9816100de565b811461010457600080fd5b50565b600081519050610116816100f0565b92915050565b600060208284031215610132576101316100b9565b5b600061014084828501610107565b91505092915050565b610690806101586000396000f3fe60806040526004361061004e5760003560e01c8063114bfeb31461005a57806319ec85ae146100835780638da5cb5b146100ae578063d0e30db0146100d9578063fc0c546a146100e357610055565b3661005557005b600080fd5b34801561006657600080fd5b50610081600480360381019061007c919061040d565b61010e565b005b34801561008f57600080fd5b50610098610285565b6040516100a5919061045c565b60405180910390f35b3480156100ba57600080fd5b506100c3610328565b6040516100d09190610486565b60405180910390f35b6100e161034c565b005b3480156100ef57600080fd5b506100f861034e565b6040516101059190610486565b60405180910390f35b60008054906101000a900473ffffffffffffffffffffffffffffffffffffffff1673ffffffffffffffffffffffffffffffffffffffff163373ffffffffffffffffffffffffffffffffffffffff161461019c576040517f08c379a0000000000000000000000000000000000000000000000000000000008152600401610193906104fe565b60405180910390fd5b6000600160009054906101000a900473ffffffffffffffffffffffffffffffffffffffff1673ffffffffffffffffffffffffffffffffffffffff1663a9059cbb84846040518363ffffffff1660e01b81526004016101fb92919061051e565b6020604051808303816000875af115801561021a573d6000803e3d6000fd5b505050506040513d601f19601f8201168201806040525081019061023e919061057f565b905080610280576040517f08c379a0000000000000000000000000000000000000000000000000000000008152600401610277906105f8565b60405180910390fd5b505050565b6000600160009054906101000a900473ffffffffffffffffffffffffffffffffffffffff1673ffffffffffffffffffffffffffffffffffffffff166370a08231306040518263ffffffff1660e01b81526004016102e29190610486565b602060405180830381865afa1580156102ff573d6000803e3d6000fd5b505050506040513d601f19601f82011682018060405250810190610323919061062d565b905090565b60008054906101000a900473ffffffffffffffffffffffffffffffffffffffff1681565b565b600160009054906101000a900473ffffffffffffffffffffffffffffffffffffffff1681565b600080fd5b600073ffffffffffffffffffffffffffffffffffffffff82169050919050565b60006103a482610379565b9050919050565b6103b481610399565b81146103bf57600080fd5b50565b6000813590506103d1816103ab565b92915050565b6000819050919050565b6103ea816103d7565b81146103f557600080fd5b50565b600081359050610407816103e1565b92915050565b6000806040838503121561042457610423610374565b5b6000610432858286016103c2565b9250506020610443858286016103f8565b9150509250929050565b610456816103d7565b82525050565b6000602082019050610471600083018461044d565b92915050565b61048081610399565b82525050565b600060208201905061049b6000830184610477565b92915050565b600082825260208201905092915050565b7f4f6e6c79206f776e65722063616e207472616e73666572000000000000000000600082015250565b60006104e86017836104a1565b91506104f3826104b2565b602082019050919050565b60006020820190508181036000830152610517816104db565b9050919050565b60006040820190506105336000830185610477565b610540602083018461044d565b9392505050565b60008115159050919050565b61055c81610547565b811461056757600080fd5b50565b60008151905061057981610553565b92915050565b60006020828403121561059557610594610374565b5b60006105a38482850161056a565b91505092915050565b7f5472616e73666572206661696c65640000000000000000000000000000000000600082015250565b60006105e2600f836104a1565b91506105ed826105ac565b602082019050919050565b60006020820190508181036000830152610611816105d5565b9050919050565b600081519050610627816103e1565b92915050565b60006020828403121561064357610642610374565b5b600061065184828501610618565b9150509291505056fea2646970667358221220dac7cbe9277e15602f2b89172f376639d671b43f3b8e403f5776df025e90914764736f6c634300081c0033",
  "linkReferences": {},
  "deployedLinkReferences": {}
}