{
  "_format": "hh-sol-artifact-1",
  "contractName": "OwnerWallet",
  "sourceName": "contracts/OwnerWallet.sol",
  "abi": [
    {
      "inputs": [],
      "stateMutability": "nonpayable",
      "type": "constructor"
    },
    {
      "inputs": [],
      "name": "deposit",
      "outputs": [],
      "stateMutability": "payable",
      "type": "function"
    },
    {
      "inputs": [],
      "name": "getBalance",
      "outputs": [
        {
          "internalType": "uint256",
          "name": "",
          "type": "uint256"
        }
      ],
      "stateMutability": "view",
      "type": "function"
    },
    {
      "inputs": [],
      "name": "owner",
      "outputs": [
        {
          "internalType": "address",
          "name": "",
          "type": "address"
        }
      ],
      "stateMutability": "view",
      "type": "function"
    },
    {
      "inputs": [
        {
          "internalType": "address payable",
          "name": "_to",
          "type": "address"
        },
        {
          "internalType": "uint256",
          "name": "_amount",
          "type": "uint256"
        }
      ],
      "name": "transferTo",
      "outputs": [],
      "stateMutability": "nonpayable",
      "type": "function"
    },
    {
      "stateMutability": "payable",
      "type": "receive"
    }
  ],
  "bytecode": "0x6080604052348015600f57600080fd5b50336000806101000a81548173ffffffffffffffffffffffffffffffffffffffff021916908373ffffffffffffffffffffffffffffffffffffffff1602179055506105988061005f6000396000f3fe6080604052600436106100435760003560e01c806312065fe01461004f5780632ccb1b301461007a5780638da5cb5b146100a3578063d0e30db0146100ce5761004a565b3661004a57005b600080fd5b34801561005b57600080fd5b506100646100d8565b60405161007191906102a1565b60405180910390f35b34801561008657600080fd5b506100a1600480360381019061009c919061034b565b6100e0565b005b3480156100af57600080fd5b506100b8610262565b6040516100c591906103ac565b60405180910390f35b6100d6610286565b005b600047905090565b60008054906101000a900473ffffffffffffffffffffffffffffffffffffffff1673ffffffffffffffffffffffffffffffffffffffff163373ffffffffffffffffffffffffffffffffffffffff161461016e576040517f08c379a000000000000000000000000000000000000000000000000000000000815260040161016590610424565b60405180910390fd5b804710156101b1576040517f08c379a00000000000000000000000000000000000000000000000000000000081526004016101a890610490565b60405180910390fd5b60008273ffffffffffffffffffffffffffffffffffffffff16826040516101d7906104e1565b60006040518083038185875af1925050503d8060008114610214576040519150601f19603f3d011682016040523d82523d6000602084013e610219565b606091505b505090508061025d576040517f08c379a000000000000000000000000000000000000000000000000000000000815260040161025490610542565b60405180910390fd5b505050565b60008054906101000a900473ffffffffffffffffffffffffffffffffffffffff1681565b565b6000819050919050565b61029b81610288565b82525050565b60006020820190506102b66000830184610292565b92915050565b600080fd5b600073ffffffffffffffffffffffffffffffffffffffff82169050919050565b60006102ec826102c1565b9050919050565b6102fc816102e1565b811461030757600080fd5b50565b600081359050610319816102f3565b92915050565b61032881610288565b811461033357600080fd5b50565b6000813590506103458161031f565b92915050565b60008060408385031215610362576103616102bc565b5b60006103708582860161030a565b925050602061038185828601610336565b9150509250929050565b6000610396826102c1565b9050919050565b6103a68161038b565b82525050565b60006020820190506103c1600083018461039d565b92915050565b600082825260208201905092915050565b7f4f6e6c79206f776e65722063616e207472616e73666572000000000000000000600082015250565b600061040e6017836103c7565b9150610419826103d8565b602082019050919050565b6000602082019050818103600083015261043d81610401565b9050919050565b7f4e6f7420656e6f7567682062616c616e636520696e20636f6e74726163740000600082015250565b600061047a601e836103c7565b915061048582610444565b602082019050919050565b600060208201905081810360008301526104a98161046d565b9050919050565b600081905092915050565b50565b60006104cb6000836104b0565b91506104d6826104bb565b600082019050919050565b60006104ec826104be565b9150819050919050565b7f5472616e73666572206661696c65640000000000000000000000000000000000600082015250565b600061052c600f836103c7565b9150610537826104f6565b602082019050919050565b6000602082019050818103600083015261055b8161051f565b905091905056fea2646970667358221220e9c1bf73f81b0c60ef7e79779273baa4e01d0e2de9986f8a37f908b3fbbb602964736f6c634300081c0033",
  "linkReferences": {},
  "deployedLinkReferences": {}
}